:030000000217459F
:0C174500787FE4F6D8FD75812102178C36
:061E0900C2A58F80D2A7E4
:081E0F007F027EEFDEFEDFFC26
:011E170022A8
:0A1E2700C2A6121E09C2A7021E0F78
:101CA200E0FCA3E0FDCFCDCFCECCCE1205CB7C00A5
:091CB2007D0A1205CBED2430FF80
:0A1CBB00D2A6121E09C2A7021E0FD6
:051CE700EAF0A3EBF0A0
:101CEC00AE07EEB40104ED148007EEB40209ED2446
:081CFC003F4480FF121E272265
:101D7A007F38121E277F0C121E277F06121E277F0E
:041D8A0001021E270D
:081E3A00121CECAF03021CBBFB
:0B1C4800900036EBF0A3EAF0A3E9F0F7
:101C5300121CECE4FD900036E0FBA3E0FAA3E0F9EC
:101C63008D8275830012058CFF6006121CBB0D80EC
:011C7300E48C
:011C7400224D
:0C19A3007F0AEA24FFFDE434FFFC7E0014
:0E19AF009000D0EEF0A3EFF0A3ECF0A3EDF06B
:1019BD00A3E4F0A304F0E4FBEBFFD39000D3E09F8E
:1019CD007480F89000D2E0648098401E9000D4E0BE
:1019DD00FEA3E0FF9000D0E0FCA3E0FD1205B9905E
:1019ED0000D4EEF0A3EFF00B80CE9000D4E0FEA378
:0219FD00E0FF09
:0119FF0022C5
:031D04009000D874
:101D0700121CE7A3E0FAEAD39400400C1219A3903F
:081D170000D8121CA21A80EE94
:011D1F0022A1
:101AA500121CECC3EA64809480400F7F2B121CBB90
:101AB5009000C7EAF0A3EBF080127F2D121CBBC388
:101AC500E49BFEE49A9000C7F0A3CEF09000C6E038
:101AD500FAEAD39400400C1219A39000C7121CA275
:031AE5001A80EE76
:011AE80022DB
:031B6D009000DD08
:101B7000121CE7A3E0FAEAD39400402D7F1012195B
:101B8000A59000DDE0FCA3E0FDCFCDCFCECCCE1202
:101B900005CBEF540FFEC3940AEE500424308002AC
:091BA0002437FF121CBB1A80CD92
:011BA9002219
:031BAA009000E2C6
:101BAD00121CE7A3E0FAEAD39400402CEA24FFFDCF
:101BBD00E434FFFC7F027E001219AF9000E2E0FCDE
:101BCD00A3E0FDCFCDCFCECCCE1205CBEF5401246B
:081BDD0030FF121CBB1A80CE80
:011BE50022DD
:051367004200EE000051
:10193E00121DE9121D20121E4A7B007C007D0C7FB9
:10194E00061216B87B007C007D007F051216B87B50
:10195E00007C007D007F041216B8120F6C12127BF1
:10196E009000EFE004F070069000EEE004F0C390FB
:10197E0000EFE094329000EEE0940040DDE4F0A33E
:10198E00F0121E61BF0303121C75121E61BF02CA44
:05199E0012000080C5ED
:0E136C0042005F0000420089000041005E0068
:1016B80090FFFF1207AAEBF090FFFE1207AAECF0CA
:1016C800A3EDF090FFFF1207AAEFF0850D83850EBA
:1016D80082E0FD900089E0FAA3E0FBAE027802C345
:1016E80033CE33CED8F9FF2461F58274003EF583FA
:1016F800EDF0850D83850E82A3E0FCA3E0FD746206
:101708002FF58274003EF583ECF0A3EDF090000312
:101718001207CEE0FD74642FF58274003EF583ED68
:10172800F0EB2401FFE43AFE7C007D0A12062090CB
:0D1738000089ECF0A3EDF09000040207AA78
:10127B00900089E0FEA3E0FF90005FE0FCA3E0FD9F
:10128B006F7002EC6E7003021366EDAE047802C34E
:10129B0033CE33CED8F92461F974003EFA7B017852
:1012AB00007C007D017E007F0412054D900060E004
:1012BB002401FF90005FE03400FE7C007D0A1206E3
:0E12CB0020ECF0A3EDF0900000E0640F702A1C
:1012D900121E61900004EFF07008E0FB7C007D05B0
:1012E9008013900004E0FBB405028005900004E03F
:0A12F900FB7C007D007F011216B897
:101303007B017A00790012002E7B017A00790012AA
:1013130010807B017A007900120B987B017A0079A7
:1013230000120E4A7B017A007900121A007B017ABF
:10133300007900120D05900000E0640160030212C1
:101343007BA3E07004A3E064047003121D8E90007D
:1013530001E07004A3E06405600302127B121CC564
:0313630002127BF8
:011366002264
:061E610090005EE0FF228C
:061E670090005EEFF02286
:10118800414C41524D204143544956415445442015
:1011980000507265737320454E5420746F20737429
:1011A8006F700020202020202020202020202020B8
:1011B8002020200025730054696D653A20253032BF
:1011C800643A253032643A2530326400416C6172E9
:1011D8006D3A253032643A253032643A253032642B
:1011E80000253032643A253032642E2530326400CE
:1011F800416C61726D2053746F70706564202000BB
:101208005365742054696D6520202020202020001B
:1012180053657420416C61726D20202020202000CD
:1012280053746F7077617463682020202020200039
:1012380030303A30302E303020202020202020003E
:10124800456E7465722074696D653A2020202020EF
:101258000030303030303020202020202020202046
:101268002000202020202020202020202020202096
:0312780020200033
:10137A0051008B54696D653A2030303A30303A303A
:10138A003000000051009D416C61726D3A30303A74
:10139A0030303A3030000000C1094100AE0041004F
:0213AA009C00A5
:101DE900121D7A7B017A00798B7D017F01021C48E3
:101BE600EF7BFF60137A1179887D017F01121C4813
:101BF6007BFF7A11799980117A1179AB7D017F018A
:101C0600121C487BFF7A1179AB7D017F02121C48BA
:011C160022AB
:10161D0090001FEFF0A3EDF0EB600D900022E0FBCA
:08162D00A3E0FAA3E0F9807BC1
:1016350090003974FFF0A37411F0A374BCF090000E
:1016450022E0F9A3E0FAA3E090003CC9F0A3EAF098
:10165500A3E9F07B017A00792512089890001FE034
:1016650064017021A3E0FF600890002B7420F0A3B3
:10167500F0EF6401600890002E7420F0A3F0EF6491
:101685000260228018900020E014600C14600E2483
:1016950002701290002B800890002E80039000317C
:1016A5007420F0A3F07B017A0079257D017F01127A
:0216B5001C48CF
:0116B7002210
:0B002E00900005EBF0A3EAF0A3E9F05E
:1000390090000312058C900008F0120573147003E8
:1000490002035924FD24FD502024FD506E70030243
:1000590002CB24F770030202EC24FE7003020106AE
:10006900147003020245020457121E8BC007121EA8
:1000790090C007121E9590003EEFF090003DD0E031
:10008900F090003CD0E0F090003974FFF0A37411B7
:10009900F0A374BFF07B017A00798B1208983009BC
:1000A9000B900008E064036003020457900008E025
:1000B900605564036003020457804C121E73C00725
:1000C900121E79C007121E7F90003EEFF090003D8E
:1000D900D0E0F090003CD0E0F090003974FFF0A33C
:1000E9007411F0A374D4F07B017A00799D120898F9
:1000F900900008E064026003020457801990000828
:10010900E0FF6003B403087B017A00798B800D90CE
:100119000008E0B4020D7B017A00799D7D017F0121
:0B01290002044F900008E064047067BF
:10013400121E5A900009EBF0A3EAF0A3E9F0121E94
:100144008590000CEFF0780D7C007D017BFF7A1226
:10015400796A7E007F1112054DE4FF90000CE0FEE9
:10016400EFC39E5025900009E0FBA3E0FAA3E0F959
:100174008F8275830012058C2430FE740D2FF58256
:10018400E43400F583EEF00F80D17B017A00790D21
:040194007D017F0268
:0E01980002044F900008E06401600302045767
:1001A600121E18900009EEF0A3EFF0E4FCFD7B6050
:1001B6007AEAF9F8121AE990000BEFF0900009E0DC
:1001C600FEA3E0FFE4FCFD7B607AEAF9F8121AE987
:1001D600AC00AD01AE02AF03E47BE87A03F9F81296
:1001E6001AE990000CEFF0900009E0FEA3E0FF7C16
:1001F600037DE81205CB7E007F0ACFCDCFCECCCED5
:100206001205CB90000DEFF090003974FFF0A37447
:1002160011F0A374E9F090000BE090003CF0900020
:100226000CE090003DF0A3EFF07B017A00790E120E
:0C02360008987B017A00790E7D017F02A0
:0B02420002044F900008E064037037D6
:10024D00121E9A900009EFF0121E9F90000AEFF017
:10025D00FD900009E0FF900005E0FBA3E0FAA3E0AC
:10026D00F9900001120656FB9000227401F0A37460
:05027D0000F0A3748BEA
:0D0282008040900008E06402600302045711
:10028F00121E9A900009EFF0121E9F90000AEFF0D5
:10029F00FD900009E0FF900005E0FBA3E0FAA3E06A
:1002AF00F9900001120656FB9000227401F0A3741E
:0902BF0000F0A3749DF012161D5D
:1002C800020457D2097F03121DD87BFF7A1179885F
:1002D8007D017F01121C487BFF7A1179997D017F8E
:1002E8000202044F200903020457C209E4FF121D49
:1002F800D8121E8BC007121E90C007121E959000C0
:100308003EEFF090003DD0E0F090003CD0E0F0905F
:10031800003974FFF0A37411F0A374BFF07B017A65
:1003280000798B1208987B017A00798B7D017F0117
:10033800121C487BFF7A1179F87D017F02121C4854
:10034800900008E0FB7C007D007F0C1216B80204C8
:1003580057300907C209E4FF121DD8900005E0FBD9
:10036800A3E0FAA3E0F9900001120656FFAEF0E50B
:10037800F06003020457EF14700302041F1460496D
:1003880014602D14700302043814700302045424FA
:100398000560030204577B017A00798B7D017F0198
:1003A800121C487BFF7A1179AB7D017F0202044F52
:1003B8007B017A00798B7D017F01121C487BFF7AD3
:1003C8001279087D017F02807E121E73C007121EFB
:1003D80079C007121E7F90003EEFF090003DD0E0FC
:1003E800F090003CD0E0F090003974FFF0A3741155
:1003F800F0A374D4F07B017A00799D1208987B01F0
:100408007A00799D7D017F01121C487BFF7A127961
:10041800187D017F0280307BFF7A1279287D017F69
:1004280001121C487BFF7A1279387D017F02801700
:100438007BFF7A1279487D017F01121C487BFF7A85
:100448001279597D017F02121C488003121CC530A5
:1004580009229000AEE004F0E0C394034016E4F0F3
:1004680090009CE070047F0180027F0090009CEF68
:04047800F0121BE67D
:01047C00225D
:0B13AC004400E6000000004100E500E6
:101D2000E4F5C9F5C875CCF075CDD875CAF075CB9A
:081D3000D8D2ADD2AFD2CA2215
:03002B000218C9EF
:1018C900C0E0C0F0C083C082C0D075D000C000C0E5
:0D18D90001C002C003C004C005C006C00766
:1018E600C2CF9000E6E0FCA3E0FDA3E0FEA3E02467
:1018F6000AFFE43EFEE43DFDE43CFC9000E61207F0
:101906006D9000E5E004F0E0C394644010E4F0124A
:0D1916001E61AB077C007D007F031216B838
:10192300D007D006D005D004D003D002D001D00018
:0B193300D0D0D082D083D0F0D0E032C2
:101DA200C2AF9000E6E0FCA3E0FDA3E0FEA3E0FFEB
:021DB200D2AFAE
:011DB400220C
:1013B70001100C010F0001140001120001130001BC
:0513C7001500011100FA
:051E8B007810E6FF22C3
:051E9000780FE6FF22BF
:051E95007814E6FF22B5
:051E9A007812E6FF22B2
:051E9F007813E6FF22AC
:10157F00900009EEF0A3EFF07813E61460361460D4
:10158F005F2402600302161C7810E6FF90000AE049
:10159F002FFF900009E03400CF2418CF3400FE7CD9
:1015AF00007D18120620AF057810EFF67B037C0044
:1015BF007F068056780FE6FF90000AE02FFF90001D
:1015CF0009E03400CF243CCF3400FE7C007D3C1278
:1015DF000620AF05780FEFF67B037C007F05802A8E
:1015EF007814E6FF90000AE02FFF900009E0340026
:1015FF00CF243CCF3400FE7C007D3C120620AF058B
:0E160F007814EFF67B037C007F041216B822DD
:101A5700781406E6C3943C4035E4F6780F06E6941E
:101A67003C401BE4F60806E694184002E4F6121E12
:101A770061AB077810E6FD7C007F061216B8121ED0
:101A870061AB07780FE6FD7C007F051216B8121EC2
:0E1A970061AB077814E6FD7C007F040216B8F0
:081E420078127601E408F62293
:0B108000900005EBF0A3EAF0A3E9F0FC
:10108B00121E61900008EFF0900005E0FBA3E0FA60
:10109B00A3E0F9120573B40303121A57900008E08A
:1010AB0024FD602B24036003021187900005E0FBF5
:1010BB00A3E0FAA3E0F9120573640F600302118732
:1010CB00121E42900008E0FB7C007D030211827827
:1010DB0012E624FE6061046003021187900005E0B4
:1010EB00FBA3E0FAA3E0F912057324F0603F24FEA2
:1010FB006020146032240260030211877813E62407
:10110B0001FFE433FE7C007D031205CB7813A605AB
:10111B0080537813E6FF70067E027F028003EF1484
:10112B00FF7813A607803E781276028038E4781297
:10113B00F67B03FCFD8040900005E0FBA3E0FAA3E7
:10114B00E0F912057324F0602624FE600D14601183
:10115B00240270287F017E00800474FFFFFE0215BD
:10116B007F781276017B037C007D007F15800AE47B
:0C117B007812F67B03FCFD7F011216B811
:011187002245
:101C7500121E61EF64037024781506E6C3940540CF
:101C85001BE4F67811E670047F0180027F0078116D
:0D1C9500EFF67B03FD7C007F161216B822CF
:101DF900373839103435361131323314301213155E
:1014260090000474FFF075900FE590540F640F70F0
:10143600030214D47F0A7E00121D65E590540F64E2
:101446000F70030214D4E4900002F0900002E0FF53
:10145600C3940450797401A807088002C333D8FCEA
:10146600F4C454F0440FF590E590540F900005F045
:10147600E0640F6050E4900003F0900003E0FFC3C7
:101486009404504174017E00A807088005C333CE3A
:1014960033CED8F9FF900005E0FDEF5D701F900098
:1014A60002E025E025E0FFA3E02FA3F0E590540F2E
:1014B600640F601A7F017E00121D6580EF900003A5
:1014C600E004F080B5900002E004F00214519000B0
:0314D60004E0FF30
:0114D90022F0
:101DC700121426EFB4FF037FFF22EF901DF993FF54
:011DD70022E9
:100F6C00121DC7900000EFF0121E61900001EFF00F
:100F7C00900000E0FFF4700302107FEFC394304048
:100F8C0031EFD39439502BA3E0FBB4051090000043
:100F9C00E024D0FDE434FFFC7F1802107C900001AB
:100FAC00E0FB900000E024D0FDE434FFFC7F0E0257
:100FBC00107C900000E024EF603C14605414605EE0
:100FCC001460681470030210542405600302107F2F
:100FDC00900001E0FB7008FC7D057F0102107C9005
:100FEC000001E0FBB405028005900001E0FB7C00F1
:100FFC007D007F01807A900001E0FB7007FC7D048E
:10100C007F01806C900001E0FB7C007D007F1080F4
:10101C005F900001E0FB7C007D007F11805290000E
:10102C0001E0FB7C007D007F128045900001E0FB1D
:10103C00B401087C007D007F1E8035900001E0FB30
:10104C007C007D007F138028900001E0FB64017020
:10105C0014FCFD7F1C1216B8900001E0FB7C007D97
:10106C00007F15800B900001E0FB7C007D007F145D
:03107C001216B891
:01107F00224E
:101D6500EF1FAC0670011E4C600A7D027CEFDCFEA5
:041D7500DDFC80EC25
:011D79002247
:1013CC004100B2074100B9004100B5004100B00036
:1013DC004100B6004100AF004100B3004100B40031
:0B13EC00C10A4200B700004100B10040
:061E6D009000B0E0FF222E
:061E73009000B2E0FF2226
:061E79009000B9E0FF2219
:061E7F009000B5E0FF2217
:1014DA00900009EEF0A3EFF09000B4E01460381425
:1014EA0060632402600302157E9000B2E0FF900060
:1014FA000AE02FFF900009E03400CF2418CF34000F
:10150A00FE7C007D18120620AF059000B2EFF07B3A
:10151A00027C007F09805A9000B9E0FF90000AE03F
:10152A002FFF900009E03400CF243CCF3400FE7C2A
:10153A00007D3C120620AF059000B9EFF07B027CDB
:10154A00007F08802C9000B5E0FF90000AE02FFF92
:10155A00900009E03400CF243CCF3400FE7C007DAB
:10156A003C120620AF059000B5EFF07B027C007FAD
:05157A00071216B82263
:101C17009000B0E0640170289000B2E06F702190EE
:101C270000B9E0B5051A9000B5E0B503139000B010
:101C37007402F0D20A7B007C007D007F0A1216B87E
:011C4700227A
:101DB500D20A7F03121DD87B007C007D007F0B02B9
:021DC50016B84E
:101D4F00C20AE49000B0F0FF121DD87B007C007D2A
:061D5F00007F0C0216B823
:0B0B9800900005EBF0A3EAF0A3E9F0E9
:100BA300121E61900008EFF0900005E0FBA3E0FA4D
:100BB300A3E0F9120573B40416121E8BC007121EAC
:100BC30090C007121E95AB07D005D007121C173033
:100BD3000A1E900005E0FBA3E0FAA3E0F9120573F7
:100BE30024F0600924FC60050470058000121D4F89
:100BF300300A3C9000B8E004F070069000B7E004BF
:100C0300F0C39000B8E094059000B7E09400401F53
:100C1300E4F0A3F09000B1E070047F0180027F0054
:100C23009000B1EFF07B00FD7C007F171216B890A7
:100C33000008E064026003020CF09000B3E024FEBD
:100C4300605B046003020CF0900005E0FBA3E0FA94
:100C5300A3E0F912057324F0604124FE601E1460C2
:100C63003124026003020CF09000B4E02401FFE49D
:100C730033FE7C007D031205CBED80529000B4E07F
:100C8300FF70067E027F028003EF14FF9000B4EF33
:100C9300803C9000B37402F0FB8036803C900005EA
:100CA300E0FBA3E0FAA3E0F912057324F0602A2421
:100CB300FE600D146013240270337F017E008004F4
:100CC30074FFFFFE1214DA80249000B37401F07BEA
:100CD300027C007D007F158011E49000B3F090004A
:100CE300B004F07B027C007D00FF1216B890000573
:100CF300E0FBA3E0FAA3E0F9120573B40A03121DA3
:010D0300B53A
:010D040022CC
:101B2D00300A3C9000B8E004F070069000B7E00475
:101B3D00F0C39000B8E094329000B7E09400401FDD
:101B4D00E4F0A3F09000B1E070047F0180027F000B
:101B5D009000B1EFF07B00FD7C007F171216B822CC
:0D13F7004100EC004200EA00004100ED0062
:081E4A00C2B7E49000ECF022A5
:091E31009000EC7401F0D2B7221C
:081E5200E49000ECF0C2B7229D
:101DD8009000ECEFF0E49000EAF0A3F09000EDF052
:011DE80022D8
:1017D1009000ECE014600D14600D14603924037066
:1017E1006BC2B722D2B7229000EBE004F0700690F2
:1017F10000EAE004F0C39000EBE094329000EAE0EC
:1018010094004048E4F0A3F09000EDE070047F0103
:1018110080317F00802D9000EBE004F07006900095
:10182100EAE004F0C39000EBE094149000EAE09445
:10183100004019E4F0A3F09000EDE070047F018016
:0D184100027F009000EDEFF024FF92B7222F
:101404004600BA0000000000004100C1004100C0D5
:0114140000D7
:031EA400021D8E8E
:101D8E00E49000C1F09000C0F07F069000BAE4F03D
:031D9E00A3DFFCC4
:011DA100221F
:071E5A007B017A0079BA2236
:061E85009000C1E0FF2205
:100E4A00900005EBF0A3EAF0A3E9F0121E61EF644B
:100E5A00046003020F6B900005E0FBA3E0FAA3E035
:100E6A00F912057324ED60651460542406600302C8
:100E7A000F6B9000C0E064016003020F6BA3E0FFF8
:100E8A00C394064003020F6B900001120656FE74CB
:100E9A00BA2FF582E43400F583EEF09000C1E00445
:100EAA00F07B047C007D007F151216B89000C1E02B
:100EBA00C394065003020F6B9000C07402F0221212
:100ECA001D8E7B047C007D007F150216B89000C041
:080EDA00E064026003020F68EE
:100EE2009000BAE075F00AA4FFA3E02F900008F08A
:100EF200FC9000BCE075F00AA4FEA3E02E9000096D
:100F0200F09000BEE075F00AA4FFA3E02F90000A63
:100F1200F0ECC394185044900009E0C3943C503B59
:100F2200A3E0C3943C50347B00900008E0FD7C00B9
:100F32007F061216B87B00900009E0FD7C007F0559
:100F42001216B87B0090000AE0FD7C007F041216A6
:100F5200B87B047C007D007F0180087B047C007DDF
:060F6200007F151216B815
:040F6800121D8E22A6
:10184E00312E54696D65205365742020202000329E
:10185E002E416C61726D2053657420202000332E52
:10186E0053746F70776174636820202000342E4E9D
:10187E00756D20496E70757420202000352E4675CA
:10188E0074757265204D6F646520004D656E753AF6
:10189E002053656C656374204E756D00496E7661DC
:1018AE006C69642063686F6963652100FF184EFFE1
:0B18BE00185DFF186CFF187BFF188AF4
:101CC5007BFF7A1879997D017F01121C489018BA1B
:101CD500E493FB740193FA740293F97D017F020288
:021CE5001C4899
:101A00001205736418704F900001120656FFAEF075
:101A1000E5F07035EF24FE601514601A14601F1491
:101A20006034240470237B057C007D0380167B05D5
:101A30007C007D02800E7B057C007D0180067B059D
:101A40007C007D047F010216B87BFF7A1879AA7D9D
:071A5000017F02121C482275
:101415004100CF004400CB000000004200C900009D
:101D3800E49000CFF09000CB12077900000000E497
:071D48009000C9F0A3F02296
:0F1E18009000CBE0FCA3E0FDA3E0FEA3E0FF22DF
:100D050012057324E56026147003020DAC147003FC
:100D1500020DBC14602424046003020E499000CF28
:100D2500E0FF602064026003020E4980179000CF47
:100D3500E064016003020E4980279000CFE0FF6068
:100D450003B402129000CF7401F0121DA29000C9E5
:100D5500EEF0A3EFF0229000CFE064016003020EF5
:100D6500497402F0121DA2900005EEF0A3EFF09079
:100D750000CBE0F8A3E0F9A3E0FAA3E0FB9000C9FB
:100D8500E0FEA3E0FFC3900006E09FFF900005E0B2
:100D95009EFEE4FCFDEB2FFFEA3EFEED39FDEC384F
:100DA500FC9000CB02076DE49000CFF09000CB12D1
:100DB500077900000000229000CFE0640160030283
:100DC5000E49121DA2900005EEF0A3EFF09000CBA6
:100DD500E0F8A3E0F9A3E0FAA3E0FB9000C9E0FE88
:100DE500A3E0FFC3900006E09FFF900005E09EFE94
:100DF500E4FCFDEB2FFFEA3EFEED39FDEC38FC90FF
:100E050000CB12076D900005E0FFA3E09000C9CF6D
:100E1500F0A3EFF0E47B64FAF9F8A3E0FCA3E0FDAE
:100E2500A3E0FEA3E0FF1206CAAC00AD01AE02AF1F
:100E350003E4FBFAF9F8C312075C70080BFCFD7FAD
:040E4500151216B8B4
:010E49002286
:1017510002193EE493A3F8E493A34003F68001F257
:1017610008DFF48029E493A3F85407240CC8C33399
:10177100C4540F4420C8834004F456800146F6DF68
:10178100E4800B0102040810204080901367E47E7E
:10179100019360BCA3FF543F30E509541FFEE4935D
:1017A100A360010ECF54C025E060A840B8E493A324
:1017B100FAE493A3F8E493A3C8C582C8CAC583CA4F
:1017C100F0A3C8C582C8CAC583CADFE9DEE780BE07
:0114250000C6
:10047D00E709F608DFFA8046E709F208DFFA803E61
:10048D0088828C83E709F0A3DFFA8032E309F6084E
:10049D00DFFA8078E309F208DFFA807088828C83B6
:1004AD00E309F0A3DFFA806489828A83E0A3F6086A
:1004BD00DFFA805889828A83E0A3F208DFFA804C44
:1004CD0080D280FA80C680D4806980F2803380101B
:1004DD0080A680EA809A80A880DA80E280CA803384
:1004ED0089828A83ECFAE493A3C8C582C8CCC583FC
:1004FD00CCF0A3C8C582C8CCC583CCDFE9DEE780CC
:10050D000D89828A83E493A3F608DFF9ECFAA9F04A
:10051D00EDFB2289828A83ECFAE0A3C8C582C8CCA0
:10052D00C583CCF0A3C8C582C8CCC583CCDFEADEB9
:10053D00E880DB89828A83E493A3F208DFF980CC1B
:10054D0088F0EF60010E4E60C388F0ED2402B40414
:10055D000050B9F582EB2402B4040050AF232345BB
:06056D0082239004CD730F
:10057300BB010689828A83E0225002E722BBFE0286
:09058300E32289828A83E49322B9
:10058C00BB010CE58229F582E5833AF583E0225024
:10059C0006E92582F8E622BBFE06E92582F8E2226E
:0D05AC00E58229F582E5833AF583E4932288
:1005B900EF8DF0A4A8F0CF8CF0A428CE8DF0A42E56
:0205C900FE2210
:1005CB00BC000BBE0029EF8DF084FFADF022E4CC14
:1005DB00F875F008EF2FFFEE33FEEC33FCEE9DECDD
:1005EB00984005FCEE9DFE0FD5F0E9E4CEFD22ED23
:1005FB00F8F5F0EE8420D21CFEADF075F008EF2F6D
:10060B00FFED33FD4007985006D5F0F222C398FD5D
:05061B000FD5F0EA22FA
:10062000C2D5EC30E709B2D5E4C39DFDE49CFCEEF5
:1006300030E715B2D5E4C39FFFE49EFE1205CBC39D
:10064000E49DFDE49CFC80031205CB30D507C3E498
:060650009FFFE49EFE2264
:10065600BB0110E58229F582E5833AF583E0F5F0E2
:10066600A3E0225009E92582F886F008E622BBFEBF
:100676000AE92582F8E2F5F008E222E5832AF58305
:08068600E993F5F0A3E99322CA
:10068E0075F008758200EF2FFFEE33FECD33CDCC23
:10069E0033CCC58233C5829BED9AEC99E5829840A6
:1006AE000CF582EE9BFEED9AFDEC99FC0FD5F0D683
:1006BE00E4CEFBE4CDFAE4CCF9A88222B800C1B9AD
:1006CE000059BA002DEC8BF084CFCECDFCE5F0CBEB
:1006DE00F97818EF2FFFEE33FEED33FDEC33FCEB24
:1006EE0033FB10D703994004EB99FB0FD8E5E4F9DF
:1006FE00FA227818EF2FFFEE33FEED33FDEC33FCCC
:10070E00C933C910D7059BE99A4007EC9BFCE99ABF
:10071E00F90FD8E0E4C9FAE4CCFB2275F010EF2F04
:10072E00FFEE33FEED33FDCC33CCC833C810D70704
:10073E009BEC9AE899400AED9BFDEC9AFCE899F83F
:0E074E000FD5F0DAE4CDFBE4CCFAE4C8F922D2
:101AE900C2D5E830E70FB2D5E4C39BFBE49AFAE428
:101AF90099F9E498F8EC30E717B2D5121B1F1206D2
:101B0900CAE4C39BFBE49AFAE499F9E498F88003E0
:101B19001206CA30D50DE4C39FFFE49EFEE49DFD85
:041B2900E49CFC221A
:10075C00EB9FF5F0EA9E42F0E99D42F0E89C45F0F3
:01076C00226A
:0C076D00ECF0A3EDF0A3EEF0A3EFF022FF
:10077900A8828583F0D083D0821207901207901245
:100789000790120790E473E493A3C583C5F0C5836A
:10079900C8C582C8F0A3C583C5F0C583C8C582C8CA
:0107A900222D
:1007AA00E50E2582F582E50D3583F583B50D0485C1
:1007BA00820E2210AF0685820EF50D2285820EF575
:0407CA000DD2AF227B
:0D07CE00E50E2582F582E50D3583F58322C9
:10083300E5082439F582E43400F583E005082290C5
:100843000036300703900039E475F0011207ED021A
:1008530005732000E97F2ED2008018EF540F2490F7
:10086300D43440D4FF30040BEF24BFB41A00500338
:100873002461FFE50960021509050CE50C7002050A
:100883000B30070E900036E475F0011207EDEF020E
:1008930007DB0200037403D2078003E4C207F508F1
:1008A300900036120804E4F509F50BF50CE5096030
:1008B300077F2012087680F5750AFFC201C200C2C5
:1008C30002C203C205C206C208120842FF700D30FD
:1008D30007057F00120887AF0CAE0B22B4255FC259
:1008E300D5C204120842FF24D0B40A00501A75F08E
:1008F3000A780930D50508B6FF0106C6A426F620F6
:10090300D5047002D20380D924CFB41A00EF500467
:10091300C2E5D204020A88D20180C6D20080C0D2C6
:100923000280BCD2D580BAD20580B47F201208766B
:100933002002077401B5090040F1120833FF1208C1
:10094300760208B0D208D2068095120833FB12084B
:1009530033FA120833F94A4B700679597A0B7BFF45
:1009630020022EE509602A7E008E8275830012051F
:100973008C60060EEE650A70F0C2D5EBC0E0EAC0EB
:10098300E0E9C0E0EE120ACFD0E0F9D0E0FAD0E01F
:10099300FB120573FF60AAEBC0E0EAC0E0E9C0E028
:1009A300120876D0E02401F9D0E03400FAD0E0FB5D
:1009B300E50A0460DCD50AD980877BFF7A0A79CB04
:1009C300D202809C791080027908C206C20880088E
:1009D300D2D5790A8004790AC2D5E50A047002F5F2
:1009E3000AE4FAFDFEFF120833FC7B082001131210
:1009F3000833FD7B1030000A120833FE120833FF60
:100A03007B20EC3382D592D55013C3E43000069F8C
:100A1300FFE49EFEE42001039DFDE49CFCE4CBF88F
:100A2300C201EC700CCFCECDCCE824F8F870F38083
:100A330017C3EF33FFEE33FEED33FDEC33FCEB3343
:100A4300FB994002FB0FD8E9EB300105F8D0E0C475
:100A530048B201C0E00AEC4D4E4F78207B0070C2D3
:100A6300EAB50A0040BCC0E0120AD1D0F0D0E020C1
:100A73000104C4C0E0C4B201C0F012085FD0F0D5D5
:100A8300F0EB0208B012080D094D5309C758091EAF
:100A93004C091A4209CB4F09D34409D349093343BB
:080AA30009D95509BD4609BD42
:100AAB004509BD470B795009222D09262E09492BE3
:100ABB00092A230947200B622A08E2480000094152
:100ACB003F3F3F00790AA2D5200314300509B91026
:100ADB00020404B9080104A2D52006025001042027
:100AEB0002689202B509005034C0E07F2030031930
:100AFB007F30A20272067205500F120B28C202C27F
:100B0B0006C205C2087F30800F300503E9C0E01232
:100B1B000876300503D0E0F9D0E0B509CC300517E5
:100B2B007F30B9100C1208767F583004077F78801D
:100B3B0003B908031208763002057F2D0208767F71
:100B4B00202008F87F2B2006F322920280CF286EFC
:100B5B00756C6C2900D2011208333001F8C2017890
:100B6B000930D50108F60208E22D50434958120806
:100B7B00332403B405004001E4900B74931208670F
:0D0B8B00743A120867D2037509040209C705
:1007DB00BB010689828A83F0225002F722BBFE01FD
:0207EB00F322F7
:1007ED00F8E0FBA3A3E0F925F0F0E5821582700295
:0707FD001583E0FA38F02239
:09080400EBF0A3EAF0A3E9F022F5
:10080D00D083D082F8E4937012740193700DA3A37A
:10081D0093F8740193F5828883E47374029368608E
:06082D00EFA3A3A380DF8E
:10000300EFB40A07740D12000E740A309811A89900
:10001300B8130CC2983098FDA899C298B811F6305D
:0700230099FDC299F5992235
:00000001FF
